{
  "contractName": "SupplyChain",
  "abi": [
    {
      "inputs": [],
      "payable": true,
      "stateMutability": "payable",
      "type": "constructor"
    },
    {
      "anonymous": false,
      "inputs": [
        {
          "indexed": true,
          "internalType": "address",
          "name": "account",
          "type": "address"
        }
      ],
      "name": "AddingConsumer",
      "type": "event"
    },
    {
      "anonymous": false,
      "inputs": [
        {
          "indexed": true,
          "internalType": "address",
          "name": "account",
          "type": "address"
        }
      ],
      "name": "AddingRetailer",
      "type": "event"
    },
    {
      "anonymous": false,
      "inputs": [
        {
          "indexed": true,
          "internalType": "address",
          "name": "account",
          "type": "address"
        }
      ],
      "name": "DistributorAdded",
      "type": "event"
    },
    {
      "anonymous": false,
      "inputs": [
        {
          "indexed": true,
          "internalType": "address",
          "name": "account",
          "type": "address"
        }
      ],
      "name": "DistributorRemoved",
      "type": "event"
    },
    {
      "anonymous": false,
      "inputs": [
        {
          "indexed": true,
          "internalType": "address",
          "name": "account",
          "type": "address"
        }
      ],
      "name": "FarmerAdded",
      "type": "event"
    },
    {
      "anonymous": false,
      "inputs": [
        {
          "indexed": true,
          "internalType": "address",
          "name": "account",
          "type": "address"
        }
      ],
      "name": "FarmerRemoved",
      "type": "event"
    },
    {
      "anonymous": false,
      "inputs": [
        {
          "indexed": false,
          "internalType": "uint256",
          "name": "upc",
          "type": "uint256"
        }
      ],
      "name": "ForSale",
      "type": "event"
    },
    {
      "anonymous": false,
      "inputs": [
        {
          "indexed": false,
          "internalType": "uint256",
          "name": "upc",
          "type": "uint256"
        }
      ],
      "name": "Harvested",
      "type": "event"
    },
    {
      "anonymous": false,
      "inputs": [
        {
          "indexed": false,
          "internalType": "uint256",
          "name": "upc",
          "type": "uint256"
        }
      ],
      "name": "Packed",
      "type": "event"
    },
    {
      "anonymous": false,
      "inputs": [
        {
          "indexed": false,
          "internalType": "uint256",
          "name": "upc",
          "type": "uint256"
        }
      ],
      "name": "Processed",
      "type": "event"
    },
    {
      "anonymous": false,
      "inputs": [
        {
          "indexed": false,
          "internalType": "uint256",
          "name": "upc",
          "type": "uint256"
        }
      ],
      "name": "Purchased",
      "type": "event"
    },
    {
      "anonymous": false,
      "inputs": [
        {
          "indexed": false,
          "internalType": "uint256",
          "name": "upc",
          "type": "uint256"
        }
      ],
      "name": "Received",
      "type": "event"
    },
    {
      "anonymous": false,
      "inputs": [
        {
          "indexed": true,
          "internalType": "address",
          "name": "account",
          "type": "address"
        }
      ],
      "name": "RemovingConsumer",
      "type": "event"
    },
    {
      "anonymous": false,
      "inputs": [
        {
          "indexed": true,
          "internalType": "address",
          "name": "account",
          "type": "address"
        }
      ],
      "name": "RemovingRetailer",
      "type": "event"
    },
    {
      "anonymous": false,
      "inputs": [
        {
          "indexed": false,
          "internalType": "uint256",
          "name": "upc",
          "type": "uint256"
        }
      ],
      "name": "Shipped",
      "type": "event"
    },
    {
      "anonymous": false,
      "inputs": [
        {
          "indexed": false,
          "internalType": "uint256",
          "name": "upc",
          "type": "uint256"
        }
      ],
      "name": "Sold",
      "type": "event"
    },
    {
      "anonymous": false,
      "inputs": [
        {
          "indexed": true,
          "internalType": "address",
          "name": "oldOwner",
          "type": "address"
        },
        {
          "indexed": true,
          "internalType": "address",
          "name": "newOwner",
          "type": "address"
        }
      ],
      "name": "TransferOwnership",
      "type": "event"
    },
    {
      "constant": false,
      "inputs": [
        {
          "internalType": "address",
          "name": "account",
          "type": "address"
        }
      ],
      "name": "addConsumer",
      "outputs": [],
      "payable": false,
      "stateMutability": "nonpayable",
      "type": "function"
    },
    {
      "constant": false,
      "inputs": [
        {
          "internalType": "address",
          "name": "account",
          "type": "address"
        }
      ],
      "name": "addDistributor",
      "outputs": [],
      "payable": false,
      "stateMutability": "nonpayable",
      "type": "function"
    },
    {
      "constant": false,
      "inputs": [
        {
          "internalType": "address",
          "name": "account",
          "type": "address"
        }
      ],
      "name": "addFarmer",
      "outputs": [],
      "payable": false,
      "stateMutability": "nonpayable",
      "type": "function"
    },
    {
      "constant": false,
      "inputs": [
        {
          "internalType": "address",
          "name": "account",
          "type": "address"
        }
      ],
      "name": "addRetailer",
      "outputs": [],
      "payable": false,
      "stateMutability": "nonpayable",
      "type": "function"
    },
    {
      "constant": true,
      "inputs": [
        {
          "internalType": "address",
          "name": "account",
          "type": "address"
        }
      ],
      "name": "isConsumer",
      "outputs": [
        {
          "internalType": "bool",
          "name": "",
          "type": "bool"
        }
      ],
      "payable": false,
      "stateMutability": "view",
      "type": "function"
    },
    {
      "constant": true,
      "inputs": [
        {
          "internalType": "address",
          "name": "account",
          "type": "address"
        }
      ],
      "name": "isDistributor",
      "outputs": [
        {
          "internalType": "bool",
          "name": "",
          "type": "bool"
        }
      ],
      "payable": false,
      "stateMutability": "view",
      "type": "function"
    },
    {
      "constant": true,
      "inputs": [
        {
          "internalType": "address",
          "name": "account",
          "type": "address"
        }
      ],
      "name": "isFarmer",
      "outputs": [
        {
          "internalType": "bool",
          "name": "",
          "type": "bool"
        }
      ],
      "payable": false,
      "stateMutability": "view",
      "type": "function"
    },
    {
      "constant": true,
      "inputs": [],
      "name": "isOwner",
      "outputs": [
        {
          "internalType": "bool",
          "name": "",
          "type": "bool"
        }
      ],
      "payable": false,
      "stateMutability": "view",
      "type": "function"
    },
    {
      "constant": true,
      "inputs": [
        {
          "internalType": "address",
          "name": "account",
          "type": "address"
        }
      ],
      "name": "isRetailer",
      "outputs": [
        {
          "internalType": "bool",
          "name": "",
          "type": "bool"
        }
      ],
      "payable": false,
      "stateMutability": "view",
      "type": "function"
    },
    {
      "constant": true,
      "inputs": [],
      "name": "owner",
      "outputs": [
        {
          "internalType": "address",
          "name": "",
          "type": "address"
        }
      ],
      "payable": false,
      "stateMutability": "view",
      "type": "function"
    },
    {
      "constant": false,
      "inputs": [],
      "name": "renounceConsumer",
      "outputs": [],
      "payable": false,
      "stateMutability": "nonpayable",
      "type": "function"
    },
    {
      "constant": false,
      "inputs": [],
      "name": "renounceDistributor",
      "outputs": [],
      "payable": false,
      "stateMutability": "nonpayable",
      "type": "function"
    },
    {
      "constant": false,
      "inputs": [],
      "name": "renounceFarmer",
      "outputs": [],
      "payable": false,
      "stateMutability": "nonpayable",
      "type": "function"
    },
    {
      "constant": false,
      "inputs": [],
      "name": "renounceOwnership",
      "outputs": [],
      "payable": false,
      "stateMutability": "nonpayable",
      "type": "function"
    },
    {
      "constant": false,
      "inputs": [],
      "name": "renounceRetailer",
      "outputs": [],
      "payable": false,
      "stateMutability": "nonpayable",
      "type": "function"
    },
    {
      "constant": false,
      "inputs": [
        {
          "internalType": "address",
          "name": "newOwner",
          "type": "address"
        }
      ],
      "name": "transferOwnership",
      "outputs": [],
      "payable": false,
      "stateMutability": "nonpayable",
      "type": "function"
    },
    {
      "constant": false,
      "inputs": [
        {
          "internalType": "uint256",
          "name": "_upc",
          "type": "uint256"
        },
        {
          "internalType": "address payable",
          "name": "_originFarmerID",
          "type": "address"
        },
        {
          "internalType": "string",
          "name": "_originFarmName",
          "type": "string"
        },
        {
          "internalType": "string",
          "name": "_originFarmInformation",
          "type": "string"
        },
        {
          "internalType": "string",
          "name": "_originFarmLatitude",
          "type": "string"
        },
        {
          "internalType": "string",
          "name": "_originFarmLongitude",
          "type": "string"
        },
        {
          "internalType": "uint256",
          "name": "_productID",
          "type": "uint256"
        },
        {
          "internalType": "string",
          "name": "_productNotes",
          "type": "string"
        }
      ],
      "name": "harvestItem",
      "outputs": [],
      "payable": false,
      "stateMutability": "nonpayable",
      "type": "function"
    },
    {
      "constant": false,
      "inputs": [
        {
          "internalType": "uint256",
          "name": "_upc",
          "type": "uint256"
        }
      ],
      "name": "processItem",
      "outputs": [],
      "payable": false,
      "stateMutability": "nonpayable",
      "type": "function"
    },
    {
      "constant": false,
      "inputs": [
        {
          "internalType": "uint256",
          "name": "_upc",
          "type": "uint256"
        }
      ],
      "name": "packItem",
      "outputs": [],
      "payable": false,
      "stateMutability": "nonpayable",
      "type": "function"
    },
    {
      "constant": false,
      "inputs": [
        {
          "internalType": "uint256",
          "name": "_upc",
          "type": "uint256"
        },
        {
          "internalType": "uint256",
          "name": "_price",
          "type": "uint256"
        }
      ],
      "name": "sellItem",
      "outputs": [],
      "payable": false,
      "stateMutability": "nonpayable",
      "type": "function"
    },
    {
      "constant": false,
      "inputs": [
        {
          "internalType": "uint256",
          "name": "_upc",
          "type": "uint256"
        }
      ],
      "name": "buyItem",
      "outputs": [],
      "payable": true,
      "stateMutability": "payable",
      "type": "function"
    },
    {
      "constant": false,
      "inputs": [
        {
          "internalType": "uint256",
          "name": "_upc",
          "type": "uint256"
        }
      ],
      "name": "shipItem",
      "outputs": [],
      "payable": false,
      "stateMutability": "nonpayable",
      "type": "function"
    },
    {
      "constant": false,
      "inputs": [
        {
          "internalType": "uint256",
          "name": "_upc",
          "type": "uint256"
        }
      ],
      "name": "receiveItem",
      "outputs": [],
      "payable": false,
      "stateMutability": "nonpayable",
      "type": "function"
    },
    {
      "constant": false,
      "inputs": [
        {
          "internalType": "uint256",
          "name": "_upc",
          "type": "uint256"
        }
      ],
      "name": "purchaseItem",
      "outputs": [],
      "payable": false,
      "stateMutability": "nonpayable",
      "type": "function"
    },
    {
      "constant": true,
      "inputs": [
        {
          "internalType": "uint256",
          "name": "_upc",
          "type": "uint256"
        }
      ],
      "name": "fetchItemBufferOne",
      "outputs": [
        {
          "internalType": "uint256",
          "name": "itemSKU",
          "type": "uint256"
        },
        {
          "internalType": "uint256",
          "name": "itemUPC",
          "type": "uint256"
        },
        {
          "internalType": "address",
          "name": "ownerID",
          "type": "address"
        },
        {
          "internalType": "address",
          "name": "originFarmerID",
          "type": "address"
        },
        {
          "internalType": "string",
          "name": "originFarmName",
          "type": "string"
        },
        {
          "internalType": "string",
          "name": "originFarmInformation",
          "type": "string"
        },
        {
          "internalType": "string",
          "name": "originFarmLatitude",
          "type": "string"
        },
        {
          "internalType": "string",
          "name": "originFarmLongitude",
          "type": "string"
        }
      ],
      "payable": false,
      "stateMutability": "view",
      "type": "function"
    },
    {
      "constant": true,
      "inputs": [
        {
          "internalType": "uint256",
          "name": "_upc",
          "type": "uint256"
        }
      ],
      "name": "fetchItemBufferTwo",
      "outputs": [
        {
          "internalType": "uint256",
          "name": "itemSKU",
          "type": "uint256"
        },
        {
          "internalType": "uint256",
          "name": "itemUPC",
          "type": "uint256"
        },
        {
          "internalType": "uint256",
          "name": "productID",
          "type": "uint256"
        },
        {
          "internalType": "string",
          "name": "productNotes",
          "type": "string"
        },
        {
          "internalType": "uint256",
          "name": "productPrice",
          "type": "uint256"
        },
        {
          "internalType": "uint256",
          "name": "itemState",
          "type": "uint256"
        },
        {
          "internalType": "address",
          "name": "distributorID",
          "type": "address"
        },
        {
          "internalType": "address",
          "name": "retailerID",
          "type": "address"
        },
        {
          "internalType": "address",
          "name": "consumerID",
          "type": "address"
        }
      ],
      "payable": false,
      "stateMutability": "view",
      "type": "function"
    }
  ],
  "bytecode": "0x6080604052336000806101000a81548173ffffffffffffffffffffffffffffffffffffffff021916908373ffffffffffffffffffffffffffffffffffffffff1602179055506000809054906101000a900473ffffffffffffffffffffffffffffffffffffffff1673ffffffffffffffffffffffffffffffffffffffff16600073ffffffffffffffffffffffffffffffffffffffff167f5c486528ec3e3f0ea91181cff8116f02bfa350e03b8b6f12e00765adbb5af85c60405160405180910390a3620000d1336200011a60201b60201c565b620000e2336200017b60201b60201c565b620000f333620001dc60201b60201c565b62000104336200023d60201b60201c565b60016006819055506001600581905550620003e7565b620001358160016200029e60201b620027541790919060201c565b8073ffffffffffffffffffffffffffffffffffffffff167fddbf200aa634dc3fb81cfd68583dd1040d1c751d335e1d86b631bde3e977fea860405160405180910390a250565b620001968160026200029e60201b620027541790919060201c565b8073ffffffffffffffffffffffffffffffffffffffff167f2e0ded4123377a3c2bc9a26f1717655a129e2f20752924d42e730ec89c83dbd060405160405180910390a250565b620001f78160036200029e60201b620027541790919060201c565b8073ffffffffffffffffffffffffffffffffffffffff167f940110d405d2539ce3da1ee3fef01f87ccf6f19eed79c8ec6e28c8459547f25e60405160405180910390a250565b620002588160046200029e60201b620027541790919060201c565b8073ffffffffffffffffffffffffffffffffffffffff167fc8a5544192b1472cd4003161b695d3b06162d2c6f8dce2ae1eb6248bc58a2e4c60405160405180910390a250565b600073ffffffffffffffffffffffffffffffffffffffff168173ffffffffffffffffffffffffffffffffffffffff161415620002d957600080fd5b620002eb82826200035460201b60201c565b15620002f657600080fd5b60018260000160008373ffffffffffffffffffffffffffffffffffffffff1673ffffffffffffffffffffffffffffffffffffffff16815260200190815260200160002060006101000a81548160ff0219169083151502179055505050565b60008073ffffffffffffffffffffffffffffffffffffffff168273ffffffffffffffffffffffffffffffffffffffff1614156200039057600080fd5b8260000160008373ffffffffffffffffffffffffffffffffffffffff1673ffffffffffffffffffffffffffffffffffffffff16815260200190815260200160002060009054906101000a900460ff16905092915050565b61298580620003f76000396000f3fe6080604052600436106101815760003560e01c80638da5cb5b116100d1578063cf2991b01161008a578063e7fb74c711610064578063e7fb74c714610d92578063f2fde38b14610dc0578063f30fc48014610e11578063f61c899a14610e4c57610181565b8063cf2991b0146109e7578063d38ea5bf14610d40578063db0e6a2f14610d7b57610181565b80638da5cb5b146108035780638ec4f5051461085a5780638f0c86fa146108ab5780638f32d59b14610914578063a26be99914610943578063b94290691461097e57610181565b806366225ff91161013e57806377c459131161011857806377c45913146104c657806380c3f96d1461073257806380fc0ce414610783578063834ff7391461079a57610181565b806366225ff9146102ee578063715018a61461045e5780637250e2241461047557610181565b8063112940f9146101865780632d923561146101d757806349dae7661461021c5780635da09b881461025757806361e6982d146102c0578063644241db146102d7575b600080fd5b34801561019257600080fd5b506101d5600480360360208110156101a957600080fd5b81019080803573ffffffffffffffffffffffffffffffffffffffff169060200190929190505050610e87565b005b3480156101e357600080fd5b5061021a600480360360408110156101fa57600080fd5b810190808035906020019092919080359060200190929190505050610ea5565b005b34801561022857600080fd5b506102556004803603602081101561023f57600080fd5b8101908080359060200190929190505050610feb565b005b34801561026357600080fd5b506102a66004803603602081101561027a57600080fd5b81019080803573ffffffffffffffffffffffffffffffffffffffff169060200190929190505050611115565b604051808215151515815260200191505060405180910390f35b3480156102cc57600080fd5b506102d5611132565b005b3480156102e357600080fd5b506102ec61113d565b005b3480156102fa57600080fd5b506103276004803603602081101561031157600080fd5b8101908080359060200190929190505050611148565b604051808a8152602001898152602001888152602001806020018781526020018681526020018573ffffffffffffffffffffffffffffffffffffffff1673ffffffffffffffffffffffffffffffffffffffff1681526020018473ffffffffffffffffffffffffffffffffffffffff1673ffffffffffffffffffffffffffffffffffffffff1681526020018373ffffffffffffffffffffffffffffffffffffffff1673ffffffffffffffffffffffffffffffffffffffff168152602001828103825288818151815260200191508051906020019080838360005b8381101561041b578082015181840152602081019050610400565b50505050905090810190601f1680156104485780820380516001836020036101000a031916815260200191505b509a505050505050505050505060405180910390f35b34801561046a57600080fd5b50610473611370565b005b34801561048157600080fd5b506104c46004803603602081101561049857600080fd5b81019080803573ffffffffffffffffffffffffffffffffffffffff169060200190929190505050611440565b005b3480156104d257600080fd5b506104ff600480360360208110156104e957600080fd5b810190808035906020019092919050505061145e565b604051808981526020018881526020018773ffffffffffffffffffffffffffffffffffffffff1673ffffffffffffffffffffffffffffffffffffffff1681526020018673ffffffffffffffffffffffffffffffffffffffff1673ffffffffffffffffffffffffffffffffffffffff16815260200180602001806020018060200180602001858103855289818151815260200191508051906020019080838360005b838110156105bb5780820151818401526020810190506105a0565b50505050905090810190601f1680156105e85780820380516001836020036101000a031916815260200191505b50858103845288818151815260200191508051906020019080838360005b83811015610621578082015181840152602081019050610606565b50505050905090810190601f16801561064e5780820380516001836020036101000a031916815260200191505b50858103835287818151815260200191508051906020019080838360005b8381101561068757808201518184015260208101905061066c565b50505050905090810190601f1680156106b45780820380516001836020036101000a031916815260200191505b50858103825286818151815260200191508051906020019080838360005b838110156106ed5780820151818401526020810190506106d2565b50505050905090810190601f16801561071a5780820380516001836020036101000a031916815260200191505b509c5050505050505050505050505060405180910390f35b34801561073e57600080fd5b506107816004803603602081101561075557600080fd5b81019080803573ffffffffffffffffffffffffffffffffffffffff1690602001909291905050506117f5565b005b34801561078f57600080fd5b50610798611813565b005b3480156107a657600080fd5b506107e9600480360360208110156107bd57600080fd5b81019080803573ffffffffffffffffffffffffffffffffffffffff16906020019092919050505061181e565b604051808215151515815260200191505060405180910390f35b34801561080f57600080fd5b5061081861183b565b604051808273ffffffffffffffffffffffffffffffffffffffff1673ffffffffffffffffffffffffffffffffffffffff16815260200191505060405180910390f35b34801561086657600080fd5b506108a96004803603602081101561087d57600080fd5b81019080803573ffffffffffffffffffffffffffffffffffffffff169060200190929190505050611864565b005b3480156108b757600080fd5b506108fa600480360360208110156108ce57600080fd5b81019080803573ffffffffffffffffffffffffffffffffffffffff169060200190929190505050611882565b604051808215151515815260200191505060405180910390f35b34801561092057600080fd5b5061092961189f565b604051808215151515815260200191505060405180910390f35b34801561094f57600080fd5b5061097c6004803603602081101561096657600080fd5b81019080803590602001909291905050506118f6565b005b34801561098a57600080fd5b506109cd600480360360208110156109a157600080fd5b81019080803573ffffffffffffffffffffffffffffffffffffffff169060200190929190505050611a6e565b604051808215151515815260200191505060405180910390f35b3480156109f357600080fd5b50610d3e6004803603610100811015610a0b57600080fd5b8101908080359060200190929190803573ffffffffffffffffffffffffffffffffffffffff16906020019092919080359060200190640100000000811115610a5257600080fd5b820183602082011115610a6457600080fd5b80359060200191846001830284011164010000000083111715610a8657600080fd5b91908080601f016020809104026020016040519081016040528093929190818152602001838380828437600081840152601f19601f82011690508083019250505050505050919291929080359060200190640100000000811115610ae957600080fd5b820183602082011115610afb57600080fd5b80359060200191846001830284011164010000000083111715610b1d57600080fd5b91908080601f016020809104026020016040519081016040528093929190818152602001838380828437600081840152601f19601f82011690508083019250505050505050919291929080359060200190640100000000811115610b8057600080fd5b820183602082011115610b9257600080fd5b80359060200191846001830284011164010000000083111715610bb457600080fd5b91908080601f016020809104026020016040519081016040528093929190818152602001838380828437600081840152601f19601f82011690508083019250505050505050919291929080359060200190640100000000811115610c1757600080fd5b820183602082011115610c2957600080fd5b80359060200191846001830284011164010000000083111715610c4b57600080fd5b91908080601f016020809104026020016040519081016040528093929190818152602001838380828437600081840152601f19601f8201169050808301925050505050505091929192908035906020019092919080359060200190640100000000811115610cb857600080fd5b820183602082011115610cca57600080fd5b80359060200191846001830284011164010000000083111715610cec57600080fd5b91908080601f016020809104026020016040519081016040528093929190818152602001838380828437600081840152601f19601f820116905080830192505050505050509192919290505050611a8b565b005b348015610d4c57600080fd5b50610d7960048036036020811015610d6357600080fd5b8101908080359060200190929190505050611c4c565b005b348015610d8757600080fd5b50610d90611dc3565b005b610dbe60048036036020811015610da857600080fd5b8101908080359060200190929190505050611dce565b005b348015610dcc57600080fd5b50610e0f60048036036020811015610de357600080fd5b81019080803573ffffffffffffffffffffffffffffffffffffffff169060200190929190505050612089565b005b348015610e1d57600080fd5b50610e4a60048036036020811015610e3457600080fd5b81019080803590602001909291905050506120a6565b005b348015610e5857600080fd5b50610e8560048036036020811015610e6f57600080fd5b81019080803590602001909291905050506121d0565b005b610e903361181e565b610e9957600080fd5b610ea2816122fa565b50565b8160026007811115610eb357fe5b60076000838152602001908152602001600020600b0160009054906101000a900460ff166007811115610ee257fe5b14610eec57600080fd5b6007600084815260200190815260200160002060030160009054906101000a900473ffffffffffffffffffffffffffffffffffffffff168073ffffffffffffffffffffffffffffffffffffffff163373ffffffffffffffffffffffffffffffffffffffff1614610f5b57600080fd5b600360076000868152602001908152602001600020600b0160006101000a81548160ff02191690836007811115610f8e57fe5b02179055508260076000868152602001908152602001600020600a01819055507fa96ae0fc3224ebd79eebfe54bd130cc9cb94416cddd1f2386115e00b72532468846040518082815260200191505060405180910390a150505050565b8060006007811115610ff957fe5b60076000838152602001908152602001600020600b0160009054906101000a900460ff16600781111561102857fe5b1461103257600080fd5b6007600083815260200190815260200160002060030160009054906101000a900473ffffffffffffffffffffffffffffffffffffffff168073ffffffffffffffffffffffffffffffffffffffff163373ffffffffffffffffffffffffffffffffffffffff16146110a157600080fd5b600160076000858152602001908152602001600020600b0160006101000a81548160ff021916908360078111156110d457fe5b02179055507f5afe3b1bf87069693c075da5c22a98d63d1aef98a30dbbe538d0781a98b77ee5836040518082815260200191505060405180910390a1505050565b600061112b82600361235490919063ffffffff16565b9050919050565b61113b336123e6565b565b61114633612440565b565b600080600060606000806000806000600760008b8152602001908152602001600020600001549850600760008b8152602001908152602001600020600101549750600760008b8152602001908152602001600020600801549650600760008b81526020019081526020016000206009018054600181600116156101000203166002900480601f01602080910402602001604051908101604052809291908181526020018280546001816001161561010002031660029004801561124c5780601f106112215761010080835404028352916020019161124c565b820191906000526020600020905b81548152906001019060200180831161122f57829003601f168201915b50505050509550600760008b8152602001908152602001600020600a01549450600760008b8152602001908152602001600020600b0160009054906101000a900460ff16600781111561129b57fe5b9350600760008b8152602001908152602001600020600b0160019054906101000a900473ffffffffffffffffffffffffffffffffffffffff169250600760008b8152602001908152602001600020600c0160009054906101000a900473ffffffffffffffffffffffffffffffffffffffff169150600760008b8152602001908152602001600020600d0160009054906101000a900473ffffffffffffffffffffffffffffffffffffffff1690508888888888888888889850985098509850985098509850985098509193959799909294969850565b61137861189f565b61138157600080fd5b600073ffffffffffffffffffffffffffffffffffffffff166000809054906101000a900473ffffffffffffffffffffffffffffffffffffffff1673ffffffffffffffffffffffffffffffffffffffff167f5c486528ec3e3f0ea91181cff8116f02bfa350e03b8b6f12e00765adbb5af85c60405160405180910390a360008060006101000a81548173ffffffffffffffffffffffffffffffffffffffff021916908373ffffffffffffffffffffffffffffffffffffffff160217905550565b61144933611882565b61145257600080fd5b61145b8161249a565b50565b600080600080606080606080600760008a8152602001908152602001600020600001549750600760008a8152602001908152602001600020600101549650600760008a815260200190815260200160002060020160009054906101000a900473ffffffffffffffffffffffffffffffffffffffff169550600760008a815260200190815260200160002060030160009054906101000a900473ffffffffffffffffffffffffffffffffffffffff169450600760008a81526020019081526020016000206004018054600181600116156101000203166002900480601f0160208091040260200160405190810160405280929190818152602001828054600181600116156101000203166002900480156115b85780601f1061158d576101008083540402835291602001916115b8565b820191906000526020600020905b81548152906001019060200180831161159b57829003601f168201915b50505050509350600760008a81526020019081526020016000206005018054600181600116156101000203166002900480601f0160208091040260200160405190810160405280929190818152602001828054600181600116156101000203166002900480156116695780601f1061163e57610100808354040283529160200191611669565b820191906000526020600020905b81548152906001019060200180831161164c57829003601f168201915b50505050509250600760008a81526020019081526020016000206006018054600181600116156101000203166002900480601f01602080910402602001604051908101604052809291908181526020018280546001816001161561010002031660029004801561171a5780601f106116ef5761010080835404028352916020019161171a565b820191906000526020600020905b8154815290600101906020018083116116fd57829003601f168201915b50505050509150600760008a81526020019081526020016000206007018054600181600116156101000203166002900480601f0160208091040260200160405190810160405280929190818152602001828054600181600116156101000203166002900480156117cb5780601f106117a0576101008083540402835291602001916117cb565b820191906000526020600020905b8154815290600101906020018083116117ae57829003601f168201915b50505050509050878787878787878797509750975097509750975097509750919395975091939597565b6117fe33611a6e565b61180757600080fd5b611810816124f4565b50565b61181c3361254e565b565b600061183482600461235490919063ffffffff16565b9050919050565b60008060009054906101000a900473ffffffffffffffffffffffffffffffffffffffff16905090565b61186d33611115565b61187657600080fd5b61187f816125a8565b50565b600061189882600161235490919063ffffffff16565b9050919050565b60008060009054906101000a900473ffffffffffffffffffffffffffffffffffffffff1673ffffffffffffffffffffffffffffffffffffffff163373ffffffffffffffffffffffffffffffffffffffff1614905090565b806005600781111561190457fe5b600760006005548152602001908152602001600020600b0160009054906101000a900460ff16600781111561193557fe5b1461193f57600080fd5b61194833611115565b61195157600080fd5b336007600084815260200190815260200160002060020160006101000a81548173ffffffffffffffffffffffffffffffffffffffff021916908373ffffffffffffffffffffffffffffffffffffffff1602179055503360076000848152602001908152602001600020600c0160006101000a81548173ffffffffffffffffffffffffffffffffffffffff021916908373ffffffffffffffffffffffffffffffffffffffff160217905550600660076000848152602001908152602001600020600b0160006101000a81548160ff02191690836007811115611a2e57fe5b02179055507fa8142743f8f70a4c26f3691cf4ed59718381fb2f18070ec52be1f1022d855557826040518082815260200191505060405180910390a15050565b6000611a8482600261235490919063ffffffff16565b9050919050565b611a9433611a6e565b611a9d57600080fd5b87600760008a81526020019081526020016000206001018190555086600760008a815260200190815260200160002060030160006101000a81548173ffffffffffffffffffffffffffffffffffffffff021916908373ffffffffffffffffffffffffffffffffffffffff16021790555085600760008a81526020019081526020016000206004019080519060200190611b379291906128ab565b5084600760008a81526020019081526020016000206005019080519060200190611b629291906128ab565b5083600760008a81526020019081526020016000206006019080519060200190611b8d9291906128ab565b5082600760008a81526020019081526020016000206007019080519060200190611bb89291906128ab565b5081600760008a81526020019081526020016000206008018190555080600760008a81526020019081526020016000206009019080519060200190611bfe9291906128ab565b506001600654016006819055507f8e55ccfc9778ff8eba1646d765cf1982537ce0f9257054a17b48aad745250183886040518082815260200191505060405180910390a15050505050505050565b8060066007811115611c5a57fe5b600760006005548152602001908152602001600020600b0160009054906101000a900460ff166007811115611c8b57fe5b14611c9557600080fd5b611c9e3361181e565b611ca757600080fd5b336007600084815260200190815260200160002060020160006101000a81548173ffffffffffffffffffffffffffffffffffffffff021916908373ffffffffffffffffffffffffffffffffffffffff1602179055503360076000848152602001908152602001600020600d0160006101000a81548173ffffffffffffffffffffffffffffffffffffffff021916908373ffffffffffffffffffffffffffffffffffffffff1602179055506007806000848152602001908152602001600020600b0160006101000a81548160ff02191690836007811115611d8357fe5b02179055507f653d56639fee6b566a5c804764e9689de38645f0b733df89a36a1b7b42173dd8826040518082815260200191505060405180910390a15050565b611dcc33612602565b565b611dd733611882565b611de057600080fd5b8060036007811115611dee57fe5b60076000838152602001908152602001600020600b0160009054906101000a900460ff166007811115611e1d57fe5b14611e2757600080fd5b3480341015611e3557600080fd5b82336007600086815260200190815260200160002060020160006101000a81548173ffffffffffffffffffffffffffffffffffffffff021916908373ffffffffffffffffffffffffffffffffffffffff1602179055503360076000868152602001908152602001600020600b0160016101000a81548173ffffffffffffffffffffffffffffffffffffffff021916908373ffffffffffffffffffffffffffffffffffffffff160217905550600460076000868152602001908152602001600020600b0160006101000a81548160ff02191690836007811115611f1357fe5b02179055506007600085815260200190815260200160002060030160009054906101000a900473ffffffffffffffffffffffffffffffffffffffff1673ffffffffffffffffffffffffffffffffffffffff166108fc60076000878152602001908152602001600020600a01549081150290604051600060405180830381858888f19350505050158015611faa573d6000803e3d6000fd5b507f92f64ca637d023f354075a4be751b169c1a8a9ccb6d33cdd0cb3520543995727846040518082815260200191505060405180910390a1600060076000838152602001908152602001600020600a015490506000813403905060076000848152602001908152602001600020600d0160009054906101000a900473ffffffffffffffffffffffffffffffffffffffff1673ffffffffffffffffffffffffffffffffffffffff166108fc829081150290604051600060405180830381858888f19350505050158015612080573d6000803e3d6000fd5b50505050505050565b61209161189f565b61209a57600080fd5b6120a38161265c565b50565b80600160078111156120b457fe5b60076000838152602001908152602001600020600b0160009054906101000a900460ff1660078111156120e357fe5b146120ed57600080fd5b6007600083815260200190815260200160002060030160009054906101000a900473ffffffffffffffffffffffffffffffffffffffff168073ffffffffffffffffffffffffffffffffffffffff163373ffffffffffffffffffffffffffffffffffffffff161461215c57600080fd5b600260076000858152602001908152602001600020600b0160006101000a81548160ff0219169083600781111561218f57fe5b02179055507f9b3b66e2380b690bae22c73ef1428fb0c91e72fe14a4b6defa13035214187aff836040518082815260200191505060405180910390a1505050565b80600460078111156121de57fe5b60076000838152602001908152602001600020600b0160009054906101000a900460ff16600781111561220d57fe5b1461221757600080fd5b60076000838152602001908152602001600020600b0160019054906101000a900473ffffffffffffffffffffffffffffffffffffffff168073ffffffffffffffffffffffffffffffffffffffff163373ffffffffffffffffffffffffffffffffffffffff161461228657600080fd5b600560076000858152602001908152602001600020600b0160006101000a81548160ff021916908360078111156122b957fe5b02179055507ff00b9a5725b80c54016f42114f6ed7792d22eecb116011c4afac29c57bef6c95836040518082815260200191505060405180910390a1505050565b61230e81600461275490919063ffffffff16565b8073ffffffffffffffffffffffffffffffffffffffff167fc8a5544192b1472cd4003161b695d3b06162d2c6f8dce2ae1eb6248bc58a2e4c60405160405180910390a250565b60008073ffffffffffffffffffffffffffffffffffffffff168273ffffffffffffffffffffffffffffffffffffffff16141561238f57600080fd5b8260000160008373ffffffffffffffffffffffffffffffffffffffff1673ffffffffffffffffffffffffffffffffffffffff16815260200190815260200160002060009054906101000a900460ff16905092915050565b6123fa81600461280090919063ffffffff16565b8073ffffffffffffffffffffffffffffffffffffffff167f5e34dfc0d7423e58ff42462dc58d14a704264a98c2edbd36eaf7cf04102a6e7660405160405180910390a250565b61245481600161280090919063ffffffff16565b8073ffffffffffffffffffffffffffffffffffffffff167f126174f6cf49c81cdb4a9214c6b8f037bef55b4ec31e4fc776cea2a1c8a88d5960405160405180910390a250565b6124ae81600161275490919063ffffffff16565b8073ffffffffffffffffffffffffffffffffffffffff167fddbf200aa634dc3fb81cfd68583dd1040d1c751d335e1d86b631bde3e977fea860405160405180910390a250565b61250881600261275490919063ffffffff16565b8073ffffffffffffffffffffffffffffffffffffffff167f2e0ded4123377a3c2bc9a26f1717655a129e2f20752924d42e730ec89c83dbd060405160405180910390a250565b61256281600261280090919063ffffffff16565b8073ffffffffffffffffffffffffffffffffffffffff167fa5e0f060af304ab17dd418c7927e3da3ae7868189bf387aee09ab179ccc572f260405160405180910390a250565b6125bc81600361275490919063ffffffff16565b8073ffffffffffffffffffffffffffffffffffffffff167f940110d405d2539ce3da1ee3fef01f87ccf6f19eed79c8ec6e28c8459547f25e60405160405180910390a250565b61261681600361280090919063ffffffff16565b8073ffffffffffffffffffffffffffffffffffffffff167f0c951d6dedbe87d3d14d4f66acb9ed070edd3a2ec0c837e6aa58d20f068e0ae760405160405180910390a250565b600073ffffffffffffffffffffffffffffffffffffffff168173ffffffffffffffffffffffffffffffffffffffff16141561269657600080fd5b8073ffffffffffffffffffffffffffffffffffffffff166000809054906101000a900473ffffffffffffffffffffffffffffffffffffffff1673ffffffffffffffffffffffffffffffffffffffff167f5c486528ec3e3f0ea91181cff8116f02bfa350e03b8b6f12e00765adbb5af85c60405160405180910390a3806000806101000a81548173ffffffffffffffffffffffffffffffffffffffff021916908373ffffffffffffffffffffffffffffffffffffffff16021790555050565b600073ffffffffffffffffffffffffffffffffffffffff168173ffffffffffffffffffffffffffffffffffffffff16141561278e57600080fd5b6127988282612354565b156127a257600080fd5b60018260000160008373ffffffffffffffffffffffffffffffffffffffff1673ffffffffffffffffffffffffffffffffffffffff16815260200190815260200160002060006101000a81548160ff0219169083151502179055505050565b600073ffffffffffffffffffffffffffffffffffffffff168173ffffffffffffffffffffffffffffffffffffffff16141561283a57600080fd5b6128448282612354565b61284d57600080fd5b60008260000160008373ffffffffffffffffffffffffffffffffffffffff1673ffffffffffffffffffffffffffffffffffffffff16815260200190815260200160002060006101000a81548160ff0219169083151502179055505050565b828054600181600116156101000203166002900490600052602060002090601f016020900481019282601f106128ec57805160ff191683800117855561291a565b8280016001018555821561291a579182015b828111156129195782518255916020019190600101906128fe565b5b509050612927919061292b565b5090565b61294d91905b80821115612949576000816000905550600101612931565b5090565b9056fea265627a7a723158203e1f49a2a12f12c7c396867c1e0c6d88605621de371e077adb7c5131dd5d797564736f6c63430005100032",
  "source": "pragma solidity ^0.5.16;\n\nimport \"../coffeecore/Ownable.sol\";\nimport \"../coffeeaccesscontrol/ConsumerRole.sol\";\nimport \"../coffeeaccesscontrol/DistributorRole.sol\";\nimport \"../coffeeaccesscontrol/FarmerRole.sol\";\nimport \"../coffeeaccesscontrol/RetailerRole.sol\";\n// Define a contract 'Supplychain'\ncontract SupplyChain  is Ownable, DistributorRole, FarmerRole, RetailerRole, ConsumerRole {\n\n  // // Define 'owner'\n  // address owner;\n\n  // Define a variable called 'upc' for Universal Product Code (UPC)\n  uint  upc;\n\n  // Define a variable called 'sku' for Stock Keeping Unit (SKU)\n  uint  sku;\n\n  // Define a public mapping 'items' that maps the UPC to an Item.\n  mapping (uint => Item) items;\n\n  // Define a public mapping 'itemsHistory' that maps the UPC to an array of TxHash, \n  // that track its journey through the supply chain -- to be sent from DApp.\n  mapping (uint => string[]) itemsHistory;\n  \n  // Define enum 'State' with the following values:\n  enum State \n  { \n    Harvested,  // 0\n    Processed,  // 1\n    Packed,     // 2\n    ForSale,    // 3\n    Sold,       // 4\n    Shipped,    // 5\n    Received,   // 6\n    Purchased   // 7\n    }\n\n  State constant defaultState = State.Harvested;\n\n  // Define a struct 'Item' with the following fields:\n  struct Item {\n    uint    sku;  // Stock Keeping Unit (SKU)\n    uint    upc; // Universal Product Code (UPC), generated by the Farmer, goes on the package, can be verified by the Consumer\n    address ownerID;  // Metamask-Ethereum address of the current owner as the product moves through 8 stages\n    address payable originFarmerID; // Metamask-Ethereum address of the Farmer\n    string  originFarmName; // Farmer Name\n    string  originFarmInformation;  // Farmer Information\n    string  originFarmLatitude; // Farm Latitude\n    string  originFarmLongitude;  // Farm Longitude\n    uint    productID;  // Product ID potentially a combination of upc + sku\n    string  productNotes; // Product Notes\n    uint    productPrice; // Product Price\n    State   itemState;  // Product State as represented in the enum above\n    address distributorID;  // Metamask-Ethereum address of the Distributor\n    address retailerID; // Metamask-Ethereum address of the Retailer\n    address payable consumerID; // Metamask-Ethereum address of the Consumer\n  }\n\n  // Define 8 events with the same 8 state values and accept 'upc' as input argument\n  event Harvested(uint upc);\n  event Processed(uint upc);\n  event Packed(uint upc);\n  event ForSale(uint upc);\n  event Sold(uint upc);\n  event Shipped(uint upc);\n  event Received(uint upc);\n  event Purchased(uint upc);\n\n\n  ///// this modifier is not needed because it was already implemented in the ownable contract\n  // // Define a modifer that checks to see if msg.sender == owner of the contract\n  // modifier onlyOwner() {\n  //   require(msg.sender == owner);\n  //   _;\n  // }\n\n  // Define a modifer that verifies the Caller\n  modifier verifyCaller (address _address) {\n    require(msg.sender == _address); \n    _;\n  }\n\n  // Define a modifier that checks if the paid amount is sufficient to cover the price\n  modifier paidEnough(uint _price) { \n    require(msg.value >= _price); \n    _;\n  }\n  \n  // Define a modifier that checks the price and refunds the remaining balance\n  modifier checkValue(uint _upc) {\n    _;\n    uint _price = items[_upc].productPrice;\n    uint amountToReturn = msg.value - _price;\n    items[_upc].consumerID.transfer(amountToReturn);\n  }\n\n  // Define a modifier that checks if an item.state of a upc is Harvested\n  modifier harvested(uint _upc) {\n    require(items[_upc].itemState == State.Harvested);\n    _;\n  }\n\n  // Define a modifier that checks if an item.state of a upc is Processed\n  modifier processed(uint _upc) {\n    require(items[_upc].itemState == State.Processed);\n    _;\n  }\n  \n  // Define a modifier that checks if an item.state of a upc is Packed\n  modifier packed(uint _upc) {\n    require(items[_upc].itemState == State.Packed);\n    _;\n  }\n\n  // Define a modifier that checks if an item.state of a upc is ForSale\n  modifier forSale(uint _upc) {\n    require(items[_upc].itemState == State.ForSale);\n    _;\n  }\n\n  // Define a modifier that checks if an item.state of a upc is Sold\n  modifier sold(uint _upc) {\n    require(items[_upc].itemState == State.Sold);\n    _;\n  }\n  \n  // Define a modifier that checks if an item.state of a upc is Shipped\n  modifier shipped(uint _upc) {\n    require(items[upc].itemState == State.Shipped);\n    _;\n  }\n\n  // Define a modifier that checks if an item.state of a upc is Received\n  modifier received(uint _upc) {\n    require(items[upc].itemState == State.Received);\n    _;\n  }\n\n  // Define a modifier that checks if an item.state of a upc is Purchased\n  modifier purchased(uint _upc) {\n    require(items[upc].itemState == State.Purchased);\n    _;\n  }\n\n  // In the constructor set 'owner' to the address that instantiated the contract\n  // and set 'sku' to 1\n  // and set 'upc' to 1\n  constructor() public payable {\n    // owner = msg.sender; this is already defined inside the ownable contract\n    sku = 1;\n    upc = 1;\n  }\n\n  // // Define a function 'kill' if required\n  //This method is only suitable if contract was for one time use\n  // function kill() public {\n  //   if (msg.sender == owner) {\n  //     selfdestruct(owner);\n  //   }\n  // }\n\n  // Define a function 'harvestItem' that allows a farmer to mark an item 'Harvested'\n  function harvestItem(uint _upc, address payable _originFarmerID, string memory _originFarmName, string memory _originFarmInformation, string  memory _originFarmLatitude, string  memory _originFarmLongitude, uint _productID, string  memory _productNotes) public onlyFarmer {\n    // Add the new item as part of Harvest\n    items[_upc].upc = _upc;\n    items[_upc].originFarmerID = _originFarmerID;\n    items[_upc].originFarmName = _originFarmName;\n    items[_upc].originFarmInformation = _originFarmInformation;\n    items[_upc].originFarmLatitude = _originFarmLatitude;\n    items[_upc].originFarmLongitude = _originFarmLongitude;\n    items[_upc].productID = _productID;\n    items[_upc].productNotes = _productNotes;\n\n    // Increment sku\n    sku = sku + 1;\n    // Emit the appropriate event\n    emit Harvested(_upc);\n    \n  }\n\n  // Define a function 'processtItem' that allows a farmer to mark an item 'Processed'\n  function processItem(uint _upc) public \n  // Call modifier to check if upc has passed previous supply chain stage\n  harvested(_upc)\n  // Call modifier to verify caller of this function\n  verifyCaller(items[_upc].originFarmerID) {\n    // Update the appropriate fields\n    items[_upc].itemState = State.Processed;\n    // Emit the appropriate event\n    emit Processed(_upc);\n  }\n\n  // Define a function 'packItem' that allows a farmer to mark an item 'Packed'\n  function packItem(uint _upc) public \n  // Call modifier to check if upc has passed previous supply chain stage\n  processed(_upc)\n  // Call modifier to verify caller of this function\n  verifyCaller(items[_upc].originFarmerID) {\n    // Update the appropriate fields\n    items[_upc].itemState = State.Packed;\n    // Emit the appropriate event\n    emit Packed(_upc);\n  }\n\n  // Define a function 'sellItem' that allows a farmer to mark an item 'ForSale'\n  function sellItem(uint _upc, uint _price) public \n  // Call modifier to check if upc has passed previous supply chain stage\n  packed(_upc)\n  // Call modifier to verify caller of this function\n  verifyCaller(items[_upc].originFarmerID) {\n    // Update the appropriate fields\n    items[_upc].itemState = State.ForSale;\n    items[_upc].productPrice = _price;\n    // Emit the appropriate event\n    emit ForSale(_upc);\n  }\n\n  // Define a function 'buyItem' that allows the disributor to mark an item 'Sold'\n  // Use the above defined modifiers to check if the item is available for sale, if the buyer has paid enough, \n  // and any excess ether sent is refunded back to the buyer\n  function buyItem(uint _upc) public payable \n    // Call modifier to check if upc has passed previous supply chain stage\n    onlyDistributor()\n    forSale(_upc)\n    // Call modifer to check if buyer has paid enough\n    paidEnough(msg.value)\n    // Call modifer to send any excess ether back to buyer\n    checkValue(_upc) {\n    \n    // Update the appropriate fields - ownerID, distributorID, itemState\n    items[_upc].ownerID = msg.sender;\n    items[_upc].distributorID = msg.sender;\n    items[_upc].itemState = State.Sold;\n    // Transfer money to farmer\n    items[_upc].originFarmerID.transfer(items[_upc].productPrice);\n    // emit the appropriate event\n    emit Sold(_upc);\n  }\n\n  // Define a function 'shipItem' that allows the distributor to mark an item 'Shipped'\n  // Use the above modifers to check if the item is sold\n  function shipItem(uint _upc) public \n    // Call modifier to check if upc has passed previous supply chain stage\n    sold(_upc)\n    // Call modifier to verify caller of this function\n    verifyCaller(items[_upc].distributorID) {\n    // Update the appropriate fields\n    items[_upc].itemState = State.Shipped;\n    // Emit the appropriate event\n    emit Shipped(_upc);\n  }\n\n  // Define a function 'receiveItem' that allows the retailer to mark an item 'Received'\n  // Use the above modifiers to check if the item is shipped\n  function receiveItem(uint _upc) public \n    // Call modifier to check if upc has passed previous supply chain stage\n    shipped(_upc)\n    // Access Control List enforced by calling Smart Contract / DApp\n    onlyRetailer() {\n    // Update the appropriate fields - ownerID, retailerID, itemState\n    items[_upc].ownerID = msg.sender;\n    items[_upc].retailerID = msg.sender;\n    items[_upc].itemState = State.Received;\n    // Emit the appropriate event\n    emit Received(_upc);\n  }\n\n  // Define a function 'purchaseItem' that allows the consumer to mark an item 'Purchased'\n  // Use the above modifiers to check if the item is received\n  function purchaseItem(uint _upc) public \n    // Call modifier to check if upc has passed previous supply chain stage\n    received(_upc)\n    // Access Control List enforced by calling Smart Contract / DApp\n    onlyConsumer() {\n    // Update the appropriate fields - ownerID, consumerID, itemState\n    items[_upc].ownerID = msg.sender;\n    items[_upc].consumerID = msg.sender;\n    items[_upc].itemState = State.Purchased;\n    // Emit the appropriate event\n    emit Purchased(_upc);\n  }\n\n  // Define a function 'fetchItemBufferOne' that fetches the data\n  function fetchItemBufferOne(uint _upc) public view returns \n  (\n  uint     itemSKU,\n  uint     itemUPC,\n  address  ownerID,\n  address  originFarmerID,\n  string  memory originFarmName,\n  string  memory originFarmInformation,\n  string  memory originFarmLatitude,\n  string  memory originFarmLongitude\n  ) \n  {\n  // Assign values to the 8 parameters\n  itemSKU = items[_upc].sku;\n  itemUPC = items[_upc].upc;\n  ownerID = items[_upc].ownerID;\n  originFarmerID = items[_upc].originFarmerID;\n  originFarmName = items[_upc].originFarmName;\n  originFarmInformation = items[_upc].originFarmInformation;\n  originFarmLatitude = items[_upc].originFarmLatitude;\n  originFarmLongitude = items[_upc].originFarmLongitude;\n    \n  return \n  (\n  itemSKU,\n  itemUPC,\n  ownerID,\n  originFarmerID,\n  originFarmName,\n  originFarmInformation,\n  originFarmLatitude,\n  originFarmLongitude\n  );\n  }\n\n  // Define a function 'fetchItemBufferTwo' that fetches the data\n  function fetchItemBufferTwo(uint _upc) public view returns \n  (\n  uint    itemSKU,\n  uint    itemUPC,\n  uint    productID,\n  string  memory productNotes,\n  uint    productPrice,\n  uint    itemState,\n  address distributorID,\n  address retailerID,\n  address consumerID\n  ) \n  {\n      // Assign values to the 9 parameters\n    itemSKU = items[_upc].sku;\n    itemUPC = items[_upc].upc;\n    productID = items[_upc].productID;\n    productNotes = items[_upc].productNotes;\n    productPrice = items[_upc].productPrice;\n    itemState = uint(items[_upc].itemState);\n    distributorID = items[_upc].distributorID;\n    retailerID = items[_upc].retailerID;\n    consumerID = items[_upc].consumerID;\n      \n    return \n    (\n    itemSKU,\n    itemUPC,\n    productID,\n    productNotes,\n    productPrice,\n    itemState,\n    distributorID,\n    retailerID,\n    consumerID\n    );\n\n    }\n}\n",
  "sourcePath": "/Users/barry/Documents/SupplyChainProject/project-3/contracts/coffeebase/SupplyChain.sol",
  "compiler": {
    "name": "solc",
    "version": "0.5.16+commit.9c3226ce.Emscripten.clang"
  },
  "schemaVersion": "3.3.4",
  "updatedAt": "2021-04-29T18:45:58.254Z",
  "networkType": "ethereum",
  "devdoc": {
    "methods": {}
  },
  "userdoc": {
    "methods": {
      "isOwner()": {
        "notice": "Check if the calling address is the owner of the contract"
      },
      "owner()": {
        "notice": "Look up the address of the owner"
      },
      "renounceOwnership()": {
        "notice": "Define a function to renounce ownerhip"
      },
      "transferOwnership(address)": {
        "notice": "Define a public function to transfer ownership"
      }
    }
  }
}